:100000000C94CC000C94E9000C94E9000C94E900E9
:100010000C942D0A0C94560A0C947F0A0C94A80A8E
:100020000C94D10A0C94FA0A0C94230B0C944C0BEC
:100030000C94E9000C94E9000C94E9000C94E9009C
:100040000C94E9000C94E9000C94E9000C94E9008C
:100050000C94E900C3044605460546054605A2047E
:100060004605460546054605460546054605CE04B1
:10007000B8044605D904E404EF04FA0405051005A4
:100080001B05260531053C05460546054605AD041C
:10009000460546054605E703460534044A040804B8
:1000A000F20346056B049704460560044605810487
:1000B0002904460546051304FD038C0455041E045B
:1000C0004605460546053F047604460546054605B1
:1000D000460546054605E703460534044A04080478
:1000E000F20346056B049704460560044605810447
:1000F0002904460546051304FD038C0455041E041B
:100100004605460546053F047604DE090E0A0E0A3A
:100110000E0A0E0A0E0A0E0A0E0A0E0A0E0AE4094A
:100120000E0A0E0A0E0A0E0A0E0A0E0A0E0A0E0A0F
:100130000E0AEA090E0A0E0A0E0A0E0A0E0A0E0A24
:100140000E0A0E0A0E0AF0090E0A0E0A0E0A0E0A0E
:100150000E0A0E0A0E0A0E0A0E0AF6090E0A0E0AF8
:100160000E0A0E0A0E0A0E0A0E0A0E0A0E0AFC09E2
:100170000E0A0E0A0E0A0E0A0E0A0E0A0E0A0E0ABF
:100180000E0A020A0E0A0E0A0E0A0E0A0E0A0E0ABB
:100190000E0A0E0A0E0A080A11241FBECFE5D8E087
:1001A000DEBFCDBF10E0A0E6B0E0E8E0FCE102C0B9
:1001B00005900D92AE38B107D9F720E0AEE8B0E077
:1001C00001C01D92A73BB207E1F70E9424060C94E0
:1001D000020E0C9400006F927F928F929F92AF92CA
:1001E000BF92CF92DF92EF92FF920F931F93CF9324
:1001F000DF93CDB7DEB7CC54D1090FB6F894DEBF8C
:100200000FBECDBF29966CAF7DAF8EAF9FAF299744
:1002100025962CAF3DAF4EAF5FAF25972D96ECAE38
:10022000FDAE0EAF1FAF2D972196ACAEBDAECEAEDC
:10023000DFAE2197CA01B9010E94540C6115710506
:1002400081F06A30710588F064367105A0F0683E6F
:100250007340B8F40F2EF8EE6F2EF3E07F2EF02DE2
:1002600016C066246394712C12C00F2EFAE06F2E14
:10027000712CF02D0CC00F2EF4E66F2E712CF02D8A
:1002800006C00F2EF0E16F2EF7E27F2EF02D60E01A
:1002900080E00E94610387E0E0E6F0E0DE01119675
:1002A00001900D928A95E1F7FE01389688E0DF0112
:1002B0001D928A95E9F7CE0101960E946405259664
:1002C0006CAD7DAD8EAD9FAD25970E94D70588E4BE
:1002D0009AE7998B888B1B8A1A8A1C8ACE014096D2
:1002E0000E94640560E081E00E94610386E0EFE621
:1002F000F0E0DE01559601900D928A95E1F7FE013E
:100300007B9689E0DF011D928A95E9F7CE0145963B
:100310000E94640529966CAD7DAD8EAD9FAD299789
:100320000E94540C0E947B0585E290E09DA38CA363
:10033000FE01B69683E0DF011D928A95E9F7CE01B2
:1003400084960E94640560E086E00E94610310E0EC
:100350005BC020E430E44EE752E062E070E080E011
:1003600090E00E9479031B5F812C912C0EC022E04B
:1003700032E042E052E062E070E080E090E00E9413
:1003800079031B5FBFEF8B1A9B0AB30180E090E0FB
:100390000E94830C6B017C0121962CAD3DAD4EADCE
:1003A0005FAD21970E944F0D0E94540C8616970650
:1003B000F0F222E032E04EE750E460E470E080E0EA
:1003C00090E00E9479031B5F812C912C0EC020E4E9
:1003D00030E440E450E460E470E080E090E00E94AB
:1003E00079031B5F8FEF881A980AA1962CAD3DAD5B
:1003F0004EAD5FADA197C701B6010E944F0D0E949F
:10040000540C8616970618F3183708F4A2CF60E04C
:1004100085E00E94610320E03EE348E05CE16AE29F
:1004200070E080E090E00E947903E12CF12C0DC097
:1004300028E038E048E058E068E070E080E090E0D4
:100440000E947903AFEFEA1AFA0AB30180E090E064
:100450000E94830C4B015C019B01AC0121966CADA9
:100460007DAD8EAD9FAD21970E944F0D0E94540C23
:10047000E616F706E8F228E038E048E058E068E0E1
:1004800070E080E090E00E947903E12CF12C0DC037
:1004900028E038E048E058E068E070E080E090E074
:1004A0000E947903BFEFEB1AFB0AA5019401A19604
:1004B0006CAD7DAD8EAD9FADA1970E944F0D0E949A
:1004C000540CE616F70620F32AE23CE148E05EE32E
:1004D00060E070E080E090E00E94790360E084E0FA
:1004E0000E94610386E0EEE7F0E0DE01999601905C
:1004F0000D928A95E1F7FE01BF9689E0DF011D921A
:100500008A95E9F7CE0189960E9464052D962CAD57
:100510003DAD4EAD5FAD2D97C501B4010E944F0DAD
:100520000E94D7058DE693E799AF88AF1BAE1AAE50
:100530001CAECE01C8960E946405C45BDF4F0FB6A7
:10054000F894DEBF0FBECDBFDF91CF911F910F9109
:10055000FF90EF90DF90CF90BF90AF909F908F90E3
:100560007F906F90089541E062E081E00E94430730
:1005700081E090E00E94AF0940E062E081E00E94EB
:1005800043070895CF93C82F40E060E081E00E94C8
:10059000430740E061E081E00E9443076C2F80E068
:1005A0000E94C6070E94B302CF910895813091F056
:1005B00028F08230D9F0833029F130C040E066E085
:1005C00081E00E94430740E067E081E00E9443072A
:1005D00080E0089541E066E081E00E94430740E04A
:1005E00067E081E00E94430780E0089540E066E014
:1005F00081E00E94430741E067E081E00E944307F9
:1006000080E0089541E066E081E00E94430741E018
:1006100067E081E00E94430780E0089581E008954B
:1006200041E064E081E00E948A0641E062E081E00E
:100630000E948A0641E060E081E00E948A0641E073
:1006400061E081E00E948A0641E066E081E00E946C
:100650008A0641E067E081E00E948A066FEF80E051
:100660000E940D0741E064E081E00E94430783E0BF
:100670000E94D6028EE30E94C20288EB0E94C20250
:1006800080E40E94C20280EC0E94C2028FE30E94BA
:10069000C20281E00E94D6020895CF93C82F41E0A4
:1006A00060E081E00E94430740E061E081E00E9459
:1006B00043076C2F80E00E94C6070E94B302CF91CF
:1006C0000895CF93DF93883088F4D62FC82F81E028
:1006D0000E94D602C093900088EB8C0F0E94C20249
:1006E000D0938F0080E48D0F0E94C202DF91CF91E2
:1006F00008959F92AF92BF92CF92DF92EF92FF92B6
:100700000F931F93CF93DF93922EA32EB42EC52E5B
:10071000D62EE72EF82ED92FC0E030C08091900061
:1007200088540E94C20280918F00805C0E94C202A5
:100730000C2F10E0000F111F000F111F000F111FD1
:10074000292D3A2D4B2D5C2D6D2D7E2D8F2D9D2F1E
:100750000E94E60D822F0E944D0380918F008F5FD3
:1007600080938F00803448F080918E00811105C005
:1007700082E00E94D60210928F00CF5FC53070F2E7
:10078000DF91CF911F910F91FF90EF90DF90CF906D
:10079000BF90AF909F900895E82F91E080918E00D8
:1007A000811190E081E020918F00293308F080E0F2
:1007B000892B09F488C18E2F90E0FC01B097EB35AE
:1007C000F10508F063C1E65DFF4F0C94DE0D2CE7E8
:1007D00032E141E152E16CE770E080E090E00E949C
:1007E000790354C12FE739E049E059E061E070E056
:1007F00080E090E00E94790349C12FE739E049E1A8
:1008000059E26FE470E080E090E00E9479033EC11D
:100810002FE739E449E459E461E470E080E090E0D6
:100820000E94790333C12EE131E241E35EE360E4EB
:1008300070E080E090E00E94790328C12FE330E46B
:1008400040E450E46FE370E080E090E00E947903C0
:100850001DC12FE732E04CE150E26FE770E080E02D
:1008600090E00E94790312C12EE331E441E451E4A7
:1008700061E470E080E090E00E94790307C123E02A
:100880003CE040E75CE063E070E080E090E00E94E4
:100890007903FCC02FE731E441E45EE360E070E0FF
:1008A00080E090E00E947903F1C021E031E04FE761
:1008B00051E061E070E080E090E00E947903E6C0E2
:1008C0002FE738E044E152E261E470E080E090E03C
:1008D0000E947903DBC02FE738E048E058E06FE77B
:1008E00070E080E090E00E947903D0C021E631E51D
:1008F00049E455E463E470E080E090E00E9479030D
:10090000C5C02FE732E04CE052E06FE770E080E0D6
:1009100090E00E947903BAC02FE439E449E459E435
:1009200069EF70E080E090E00E947903AFC021E4BD
:1009300031E44FE751E461E470E080E090E00E9430
:100940007903A4C023EC33E748E15EEC63EC70E08C
:1009500080E090E00E94790399C024E234E244E20E
:1009600054E264E270E080E090E00E9479038EC07F
:1009700020E030E740E750E760E070E080E090E0A2
:100980000E94790383C020E030E040E050E060E066
:1009900070E080E090E00E94790378C028E138E1BF
:1009A00048E158E168E170E080E090E00E9479035E
:1009B0006DC02EE331E549E455E46EE370E080E07C
:1009C00090E00E94790362C024E432E44FE750E4EF
:1009D00060E470E080E090E00E94790357C026E474
:1009E00031E641E55EE460E470E080E090E00E9482
:1009F00079034CC021E439E449E459E466E370E04A
:100A000080E090E00E94790341C028E134E142E1B6
:100A10005FE760E170E080E090E00E94790336C01B
:100A20002FE439E449E451E561E270E080E090E0D0
:100A30000E9479032BC02CE73AE449E459E461E3CE
:100A400070E080E090E00E94790320C021E039E46A
:100A500049E259E16FE070E080E090E00E947903A4
:100A600015C027E739E449E459E467E770E080E01E
:100A700090E00E9479030AC02FE439E449E459E484
:100A80006FE770E080E090E00E9479038091900031
:100A900088540E94C20280918F00805C0E94C20232
:100AA00080E00E944D0380918F008F5F80938F00C4
:100AB000803448F080918E00811105C082E00E9450
:100AC000D60210928F0008950F931F93CF93009733
:100AD00031F481E00CC00E94CC03CF5F02C08C01D6
:100AE000C0E0F801EC0FF11D80818111F4CFCF91AE
:100AF0001F910F910895CF92DF92EF92FF920F9383
:100B00001F938B019C01672B682B692B49F580E3B0
:100B10000E94CC0345C0DC01CB01880F991FAA1F9E
:100B2000BB1F6C017D01CC0CDD1CEE1CFF1CCC0C32
:100B3000DD1CEE1CFF1CC80ED91EEA1EFB1EC901DF
:100B4000B8012AE030E040E050E00E94BC0D6C0D9E
:100B50007D1D8E1D9F1D022F132F242F352F04C0A6
:100B600061E070E080E090E001151105210531059C
:100B700091F62AE030E040E050E00E94BC0DE22E09
:100B8000F32E042F152F80E3860F0E94CC036E2DC9
:100B90007F2D802F912F613071058105910549F7D7
:100BA0001F910F91FF90EF90DF90CF9008958F925B
:100BB0009F92AF92BF92CF92DF92EF92FF92CF932C
:100BC000DF934B015C010E94540C6B01E12CF12C72
:100BD000C701B6010E947B058EE20E94CC03C701CB
:100BE000B6010E94830C9B01AC01C501B4010E94B7
:100BF000750BD0E01CC020E030E040E251E40E94E0
:100C00004F0D6B017C010E94540CC62F80E38C0FAA
:100C10000E94CC036C2F70E080E090E00E94850C75
:100C20009B01AC01C701B6010E94750BDF5FD33099
:100C300010F3DF91CF91FF90EF90DF90CF90BF90B6
:100C4000AF909F908F900895CF93DF93CDB7DEB78D
:100C500064970FB6F894DEBF0FBECDBF19821A821B
:100C60001B821C821D821E821F82188619861A868C
:100C70001B861C861D861E861F86188A198A1A8A5C
:100C80001B8A1C8A0E9458090E9473090E949808B6
:100C90000E9495090E9410080E94100341E063E041
:100CA00081E00E948A0640E066E083E00E948A06B6
:100CB00080E50E94100A8E010F5E1F4F9E01235F88
:100CC0003F4FAE01475F5F4FBE016B5F7F4FCE016D
:100CD00001960E94A408AD84BE84CF84D888E9849C
:100CE000FA840B851C852D813E814F815885698151
:100CF0007A818B819C81EC89EF93EB89EF93EA8970
:100D0000EF93E989EF930E94EB000F900F900F9003
:100D10000F90D1CF683008F078C04130C1F58130F4
:100D200091F028F08230D9F0833029F170C02AB3D5
:100D300081E090E002C0880F991F6A95E2F7822B4C
:100D40008ABB80E0089527B381E090E002C0880F5D
:100D5000991F6A95E2F7822B87BB80E0089524B340
:100D600081E090E002C0880F991F6A95E2F7822B1C
:100D700084BB80E0089521B381E090E002C0880F39
:100D8000991F6A95E2F7822B81BB80E0089541119B
:100D900040C0813099F028F08230E9F0833041F191
:100DA0003AC02AB381E090E002C0880F991F6A958B
:100DB000E2F7809582238ABB80E0089527B381E023
:100DC00090E002C0880F991F6A95E2F78095822310
:100DD00087BB80E0089524B381E090E002C0880FD3
:100DE000991F6A95E2F78095822384BB80E008957D
:100DF00021B381E090E002C0880F991F6A95E2F765
:100E00008095822381BB80E0089581E0089581E090
:100E1000089581E0089581E008956F3FC1F4813025
:100E200051F028F0823059F0833069F026C08FEFFE
:100E30008ABB80E008958FEF87BB80E008958FEF35
:100E400084BB80E008958FEF81BB80E0089561113D
:100E500016C0813049F028F0823049F0833051F0DB
:100E600010C01ABA80E0089517BA80E0089514BA45
:100E700080E0089511BA80E0089581E0089581E04E
:100E8000089581E00895683008F078C04130C1F5D8
:100E9000813091F028F08230D9F0833029F170C090
:100EA0002BB381E090E002C0880F991F6A95E2F7AA
:100EB000822B8BBB80E0089528B381E090E002C0D4
:100EC000880F991F6A95E2F7822B88BB80E008950E
:100ED00025B381E090E002C0880F991F6A95E2F780
:100EE000822B85BB80E0089522B381E090E002C0B0
:100EF000880F991F6A95E2F7822B82BB80E00895E4
:100F0000411140C0813099F028F08230E9F08330FF
:100F100041F13AC02BB381E090E002C0880F991FE5
:100F20006A95E2F7809582238BBB80E0089528B311
:100F300081E090E002C0880F991F6A95E2F78095E2
:100F4000822388BB80E0089525B381E090E002C051
:100F5000880F991F6A95E2F78095822385BB80E010
:100F6000089522B381E090E002C0880F991F6A952E
:100F7000E2F78095822382BB80E0089581E00895A6
:100F800081E0089581E0089581E008956F3FC1F404
:100F9000813051F028F0823059F0833069F03AC046
:100FA0008FEF8BBB80E008958FEF88BB80E00895C2
:100FB0008FEF85BB80E008958FEF82BB80E00895BE
:100FC000611114C0813049F028F0823049F083303B
:100FD00051F022C01BBA80E0089518BA80E008954D
:100FE00015BA80E0089512BA80E00895813049F082
:100FF00028F0823049F0833051F010C06BBB80E0A4
:10100000089568BB80E0089565BB80E0089562BBE9
:1010100080E0089581E0089581E0089581E00895D9
:101020008FB780688FBF0895CF93DF938091920030
:10103000811113C01092A3001092A4001092A50079
:101040001092A6001DBC1CBC8EB58F7B8EBD8091FE
:1010500092008F5F8093920054C0813051F526B585
:1010600037B58091A3009091A400A091A500B09104
:10107000A600DC0199278827820F931FA11DB11DAF
:1010800080939B0090939C00A0939D00B0939E0042
:1010900010929F001092A0001092A1001092A20046
:1010A0008EB580648EBD809192008F5F8093920098
:1010B00028C0823031F526B537B58091A3009091D4
:1010C000A400A091A500B091A600DC019927882773
:1010D000820F931FA11DB11D8093930090939400E4
:1010E000A0939500B09396001092970010929800EC
:1010F0001092990010929A001092920081E08093D1
:101100009100DF91CF9108958091A3009091A40068
:10111000A091A500B091A6000196A11DB11D8093DC
:10112000A3009093A400A093A500B093A6000895F7
:101130008EB580648EBD89B7806289BF88B78062B2
:1011400088BF1DBC1CBC08952F923F924F925F92A6
:101150006F927F928F929F92AF92BF92CF92DF92C7
:10116000EF92FF920F931F93CF93DF936C01EB01EC
:101170007A01190140E066E083E00E948A068EB59C
:1011800080648EBD6EE184E198E00E94D3096CE337
:1011900084E898E00E94D30980919100813009F0A1
:1011A00074C020919B0030919C0040919D00509113
:1011B0009E0060919F007091A0008091A10090918D
:1011C000A2000E94C00C2B013C01209193003091A1
:1011D0009400409195005091960060919700709115
:1011E00098008091990090919A000E94C00C4B0148
:1011F0005C019B01AC01C301B2010E94E20B20E043
:1012000030E048EC52E40E944F0DF6016083718398
:10121000828393832DEB37E346E853E3C501B401A2
:101220000E944F0D9B01AC01F701608371838283A3
:10123000938360E070E080E89FE30E94E20B6883A4
:1012400079838A839B832DEB37E346E853E3C3011D
:10125000B2010E944F0DF1016083718382839383F9
:10126000A3019201C501B4010E94750B2DEB37E378
:1012700046E853E30E944F0DF80160837183828337
:1012800093831092910010929200DF91CF911F9161
:101290000F91FF90EF90DF90CF90BF90AF909F9015
:1012A0008F907F906F905F904F903F902F90089518
:1012B00083B7806483BF83B7886083BF88EC8CBFAB
:1012C00089B7826089BF89B7816089BF83B78F7E04
:1012D00083BF83B7806283BF83B7887F83BF83B7B1
:1012E000856083BF08958FB58E7F8FBD8FB58D7F4D
:1012F0008FBD8EB5877F8EBD8EB58F7E8EBD89B733
:10130000846089BF8FB58F7B8FBD8FB58F778FBD81
:101310008FB58F7E8FBD8FB58F7D8FBD8EB5887F4A
:101320008EBD8EB581608EBD089585B58F7B85BDE0
:1013300085B5886085BD8AEF83BD89B7806889BF20
:1013400085B58F7E85BD85B58F7D85BD85B5887F4B
:1013500085BD85B5846085BD08958CBF0895AC01B9
:1013600085B5846085BD89B78F7789BF8AEF83BDD6
:1013700020E030E009C014BC08B607FEFDCF98B7E6
:10138000906898BF2F5F3F4F24173507A0F385B5AE
:10139000887F85BD85B5846085BD8AEF83BD89B7AB
:1013A000806889BF0895462F50E0FA013A97E734E4
:1013B000F105A0F5EB57FF4F0C94DE0D9093AA00BA
:1013C0008093A90080E008959093A8008093A700DF
:1013D00080E008959093B2008093B10080E008957A
:1013E0009093B0008093AF0080E008959093AE009A
:1013F0008093AD0080E008959093AC008093AB00A3
:1014000080E008959093B6008093B50080E0089541
:101410009093B4008093B30080E0089581E0089534
:101420008536C8F4682F70E080E090E00E94830C5D
:1014300020E030E048EC52E40E94E20B20E030E093
:1014400040E853E40E944F0D0E94540C862F0E94E6
:10145000AD0980E0089581E008951F920F920FB6C4
:101460000F9211242F933F934F935F936F937F932A
:101470008F939F93AF93BF93EF93FF93E091A90056
:10148000F091AA00309709F00995FF91EF91BF9173
:10149000AF919F918F917F916F915F914F913F910C
:1014A0002F910F900FBE0F901F9018951F920F92C3
:1014B0000FB60F9211242F933F934F935F936F9327
:1014C0007F938F939F93AF93BF93EF93FF93E0919D
:1014D000A700F091A800309709F00995FF91EF91CE
:1014E000BF91AF919F918F917F916F915F914F913C
:1014F0003F912F910F900FBE0F901F9018951F9244
:101500000F920FB60F9211242F933F934F935F9337
:101510006F937F938F939F93AF93BF93EF93FF93BB
:10152000E091B100F091B200309709F00995FF9178
:10153000EF91BF91AF919F918F917F916F915F914B
:101540004F913F912F910F900FBE0F901F901895C4
:101550001F920F920FB60F9211242F933F934F9328
:101560005F936F937F938F939F93AF93BF93EF930B
:10157000FF93E091AF00F091B000309709F009952A
:10158000FF91EF91BF91AF919F918F917F916F915B
:101590005F914F913F912F910F900FBE0F901F9031
:1015A00018951F920F920FB60F9211242F933F930D
:1015B0004F935F936F937F938F939F93AF93BF935B
:1015C000EF93FF93E091AD00F091AE00309709F0FA
:1015D0000995FF91EF91BF91AF919F918F917F916D
:1015E0006F915F914F913F912F910F900FBE0F9090
:1015F0001F9018951F920F920FB60F9211242F93E0
:101600003F934F935F936F937F938F939F93AF938A
:10161000BF93EF93FF93E091AB00F091AC00309754
:1016200009F00995FF91EF91BF91AF919F918F9133
:101630007F916F915F914F913F912F910F900FBECE
:101640000F901F9018951F920F920FB60F921124B2
:101650002F933F934F935F936F937F938F939F93BA
:10166000AF93BF93EF93FF93E091B500F091B60075
:10167000309709F00995FF91EF91BF91AF919F913C
:101680008F917F916F915F914F913F912F910F902B
:101690000FBE0F901F9018951F920F920FB60F92CA
:1016A00011242F933F934F935F936F937F938F9367
:1016B0009F93AF93BF93EF93FF93E091B300F091AB
:1016C000B400309709F00995FF91EF91BF91AF9168
:1016D0009F918F917F916F915F914F913F912F914A
:1016E0000F900FBE0F901F9018955058BB27AA2738
:1016F0000E948D0B0C94150D0E94070D38F00E946E
:101700000E0D20F039F49F3F19F426F40C94040DCB
:101710000EF4E095E7FB0C94FE0CE92F0E94260DD9
:1017200058F3BA17620773078407950720F079F416
:10173000A6F50C94480D0EF4E0950B2EBA2FA02DB3
:101740000B01B90190010C01CA01A0011124FF276E
:10175000591B99F0593F50F4503E68F11A16F04069
:10176000A22F232F342F4427585FF3CF4695379568
:101770002795A795F0405395C9F77EF41F16BA0B2D
:10178000620B730B840BBAF09150A1F0FF0FBB1FDB
:10179000661F771F881FC2F70EC0BA0F621F731F24
:1017A000841F48F4879577956795B795F7959E3F81
:1017B00008F0B0CF9395880F08F09927EE0F979512
:1017C000879508950E94F60B0C94150D0E940E0D3E
:1017D00058F00E94070D40F029F45F3F29F00C9467
:1017E000FE0C51110C94490D0C94040D0E94260D11
:1017F00068F39923B1F3552391F3951B550BBB2740
:10180000AA2762177307840738F09F5F5F4F220F84
:10181000331F441FAA1FA9F335D00E2E3AF0E0E87B
:1018200032D091505040E695001CCAF72BD0FE2FC5
:1018300029D0660F771F881FBB1F26173707480759
:10184000AB07B0E809F0BB0B802DBF01FF27935811
:101850005F4F3AF09E3F510578F00C94FE0C0C94CB
:10186000490D5F3FE4F3983ED4F3869577956795ED
:10187000B795F7959F5FC9F7880F911D9695879546
:1018800097F90895E1E0660F771F881FBB1F621765
:1018900073078407BA0720F0621B730B840BBA0B23
:1018A000EE1F88F7E09508950E942E0D88F09F574F
:1018B00098F0B92F9927B751B0F0E1F0660F771F74
:1018C000881F991F1AF0BA95C9F714C0B13091F06A
:1018D0000E94480DB1E008950C94480D672F782FB1
:1018E0008827B85F39F0B93FCCF38695779567952F
:1018F000B395D9F73EF490958095709561957F4F9B
:101900008F4F9F4F0895E89409C097FB3EF4909540
:101910008095709561957F4F8F4F9F4F9923A9F0C8
:10192000F92F96E9BB279395F69587957795679557
:10193000B795F111F8CFFAF4BB0F11F460FF1BC09B
:101940006F5F7F4F8F4F9F4F16C0882311F096E92E
:1019500011C0772321F09EE8872F762F05C06623DC
:1019600071F096E8862F70E060E02AF09A95660F95
:10197000771F881FDAF7880F9695879597F908954E
:10198000E894F92F96EBFF2381F012161306140644
:10199000440B9395F69587957795679557954040B5
:1019A000FF23B9F71BC099270895882351F4985055
:1019B000D2F7872B762F652F542F432F322F20E01D
:1019C000B1F3121613061406440B88233AF09A95C5
:1019D000440F551F661F771F881FCAF755234AF407
:1019E000440F551F11F460FF04C06F5F7F4F8F4F8E
:1019F0009F4F880F9695879597F9089597F99F6758
:101A000080E870E060E008959FEF80EC0895002486
:101A10000A941616170618060906089500240A9453
:101A200012161306140605060895092E0394000CD9
:101A300011F4882352F0BB0F40F4BF2B11F460FF68
:101A400004C06F5F7F4F8F4F9F4F089557FD905891
:101A5000440F551F59F05F3F71F04795880F97FB72
:101A6000991F61F09F3F79F087950895121613062C
:101A70001406551FF2CF4695F1DF08C0161617065B
:101A80001806991FF1CF8695710561050894089590
:101A9000E894BB2766277727CB0197F908950E9422
:101AA000620D0C94150D0E94070D38F00E940E0D6A
:101AB00020F0952311F00C94FE0C0C94040D1124CD
:101AC0000C94490D0E94260D70F3959FC1F3950F5C
:101AD00050E0551F629FF001729FBB27F00DB11DB2
:101AE000639FAA27F00DB11DAA1F649F6627B00D42
:101AF000A11D661F829F2227B00DA11D621F739F2B
:101B0000B00DA11D621F839FA00D611D221F749F38
:101B10003327A00D611D231F849F600D211D822F7F
:101B2000762F6A2F11249F5750409AF0F1F08823A6
:101B30004AF0EE0FFF1FBB1F661F771F881F9150D3
:101B40005040A9F79E3F510580F00C94FE0C0C9478
:101B5000490D5F3FE4F3983ED4F3869577956795FA
:101B6000B795F795E7959F5FC1F7FE2B880F911DFD
:101B70009695879597F90895A1E21A2EAA1BBB1B8B
:101B8000FD010DC0AA1FBB1FEE1FFF1FA217B30749
:101B9000E407F50720F0A21BB30BE40BF50B661F5F
:101BA000771F881F991F1A9469F760957095809523
:101BB00090959B01AC01BD01CF010895EE0FFF1F71
:101BC0000590F491E02D099497FB10F81694000805
:101BD0000F93083098F00850232F342F452F562F9D
:101BE000672F782F892F902DF4CF0594979587959F
:101BF0007795679557954795379527950A95AAF74D
:081C00000F910895F894FFCF45
:101C0800467265712E3D000000000000000000448F
:101C18007574793D00000000000000000000546960
:0E1C28006D653D00000000000000000000009F
:00000001FF
